{
  "_format": "hh-sol-artifact-1",
  "contractName": "Factory",
  "sourceName": "contracts/Factory.sol",
  "abi": [
    {
      "inputs": [
        {
          "internalType": "address",
          "name": "_shareLogic",
          "type": "address"
        },
        {
          "internalType": "address",
          "name": "_accessManager",
          "type": "address"
        },
        {
          "internalType": "address",
          "name": "_feesManager",
          "type": "address"
        },
        {
          "internalType": "address",
          "name": "_harvester",
          "type": "address"
        },
        {
          "internalType": "address",
          "name": "_swapRouter",
          "type": "address"
        },
        {
          "internalType": "address",
          "name": "_swapProxy",
          "type": "address"
        },
        {
          "internalType": "address",
          "name": "_swapAdapter",
          "type": "address"
        },
        {
          "internalType": "address",
          "name": "_beacon",
          "type": "address"
        }
      ],
      "stateMutability": "nonpayable",
      "type": "constructor"
    },
    {
      "inputs": [],
      "name": "PriceFeedPrecision",
      "type": "error"
    },
    {
      "inputs": [],
      "name": "Unauthorized",
      "type": "error"
    },
    {
      "inputs": [
        {
          "internalType": "address",
          "name": "token",
          "type": "address"
        }
      ],
      "name": "UnknowToken",
      "type": "error"
    },
    {
      "anonymous": false,
      "inputs": [
        {
          "indexed": false,
          "internalType": "address[]",
          "name": "tokens",
          "type": "address[]"
        },
        {
          "indexed": false,
          "internalType": "address[]",
          "name": "priceFeeds",
          "type": "address[]"
        }
      ],
      "name": "AddTokensAndPriceFeeds",
      "type": "event"
    },
    {
      "anonymous": false,
      "inputs": [
        {
          "indexed": true,
          "internalType": "address",
          "name": "previousOwner",
          "type": "address"
        },
        {
          "indexed": true,
          "internalType": "address",
          "name": "newOwner",
          "type": "address"
        }
      ],
      "name": "OwnershipTransferred",
      "type": "event"
    },
    {
      "anonymous": false,
      "inputs": [
        {
          "indexed": false,
          "internalType": "address",
          "name": "newAccessManager",
          "type": "address"
        }
      ],
      "name": "SetAccessManager",
      "type": "event"
    },
    {
      "anonymous": false,
      "inputs": [
        {
          "indexed": false,
          "internalType": "address",
          "name": "newFeesManager",
          "type": "address"
        }
      ],
      "name": "SetFeesManager",
      "type": "event"
    },
    {
      "anonymous": false,
      "inputs": [
        {
          "indexed": false,
          "internalType": "address",
          "name": "newHarvester",
          "type": "address"
        }
      ],
      "name": "SetHarvester",
      "type": "event"
    },
    {
      "anonymous": false,
      "inputs": [
        {
          "indexed": false,
          "internalType": "address",
          "name": "newSwapRouter",
          "type": "address"
        },
        {
          "indexed": false,
          "internalType": "address",
          "name": "newSwapProxy",
          "type": "address"
        }
      ],
      "name": "SetSwapContracts",
      "type": "event"
    },
    {
      "anonymous": false,
      "inputs": [
        {
          "indexed": false,
          "internalType": "address",
          "name": "vault",
          "type": "address"
        },
        {
          "indexed": false,
          "internalType": "address",
          "name": "share",
          "type": "address"
        },
        {
          "indexed": false,
          "internalType": "address[]",
          "name": "tokens",
          "type": "address[]"
        }
      ],
      "name": "VaultCreated",
      "type": "event"
    },
    {
      "inputs": [],
      "name": "accessManager",
      "outputs": [
        {
          "internalType": "address",
          "name": "",
          "type": "address"
        }
      ],
      "stateMutability": "view",
      "type": "function"
    },
    {
      "inputs": [
        {
          "internalType": "address[]",
          "name": "_tokens",
          "type": "address[]"
        },
        {
          "internalType": "address[]",
          "name": "_priceFeeds",
          "type": "address[]"
        }
      ],
      "name": "addTokensAndPriceFeedsToWL",
      "outputs": [],
      "stateMutability": "nonpayable",
      "type": "function"
    },
    {
      "inputs": [],
      "name": "beacon",
      "outputs": [
        {
          "internalType": "address",
          "name": "",
          "type": "address"
        }
      ],
      "stateMutability": "view",
      "type": "function"
    },
    {
      "inputs": [],
      "name": "countVault",
      "outputs": [
        {
          "internalType": "uint256",
          "name": "",
          "type": "uint256"
        }
      ],
      "stateMutability": "view",
      "type": "function"
    },
    {
      "inputs": [
        {
          "internalType": "address[]",
          "name": "_tokensAddresses",
          "type": "address[]"
        },
        {
          "components": [
            {
              "internalType": "string",
              "name": "vaultName",
              "type": "string"
            },
            {
              "internalType": "string",
              "name": "description",
              "type": "string"
            },
            {
              "internalType": "string",
              "name": "shareName",
              "type": "string"
            },
            {
              "internalType": "string",
              "name": "shareSymbol",
              "type": "string"
            },
            {
              "internalType": "address",
              "name": "strategist",
              "type": "address"
            }
          ],
          "internalType": "struct VLib.CreationProps",
          "name": "_creationProps",
          "type": "tuple"
        },
        {
          "components": [
            {
              "internalType": "address",
              "name": "beneficiary",
              "type": "address"
            },
            {
              "internalType": "uint256",
              "name": "exitFees",
              "type": "uint256"
            },
            {
              "internalType": "uint256",
              "name": "managementFeesRate",
              "type": "uint256"
            },
            {
              "internalType": "uint256",
              "name": "managementFeesToStrategist",
              "type": "uint256"
            },
            {
              "internalType": "uint256",
              "name": "performanceFeesRate",
              "type": "uint256"
            },
            {
              "internalType": "uint256",
              "name": "performanceFeesToStrategist",
              "type": "uint256"
            }
          ],
          "internalType": "struct VLib.FeesProps",
          "name": "_feesProps",
          "type": "tuple"
        },
        {
          "components": [
            {
              "internalType": "uint256",
              "name": "maxAUM",
              "type": "uint256"
            },
            {
              "internalType": "uint256",
              "name": "maxLossSwap",
              "type": "uint256"
            },
            {
              "internalType": "uint256",
              "name": "minAmountDeposit",
              "type": "uint256"
            },
            {
              "internalType": "uint256",
              "name": "maxAmountDeposit",
              "type": "uint256"
            },
            {
              "internalType": "uint256",
              "name": "minFrequencySwap",
              "type": "uint256"
            },
            {
              "internalType": "uint256",
              "name": "minSecurityTime",
              "type": "uint256"
            },
            {
              "internalType": "uint256",
              "name": "minHarvestThreshold",
              "type": "uint256"
            }
          ],
          "internalType": "struct VLib.SecurityProps",
          "name": "_securityProps",
          "type": "tuple"
        }
      ],
      "name": "createVault",
      "outputs": [],
      "stateMutability": "nonpayable",
      "type": "function"
    },
    {
      "inputs": [],
      "name": "feesManager",
      "outputs": [
        {
          "internalType": "address",
          "name": "",
          "type": "address"
        }
      ],
      "stateMutability": "view",
      "type": "function"
    },
    {
      "inputs": [],
      "name": "getAllVaults",
      "outputs": [
        {
          "internalType": "address[]",
          "name": "",
          "type": "address[]"
        }
      ],
      "stateMutability": "view",
      "type": "function"
    },
    {
      "inputs": [],
      "name": "getFactoryState",
      "outputs": [
        {
          "internalType": "uint256",
          "name": "",
          "type": "uint256"
        },
        {
          "internalType": "address",
          "name": "",
          "type": "address"
        },
        {
          "internalType": "address",
          "name": "",
          "type": "address"
        },
        {
          "internalType": "address",
          "name": "",
          "type": "address"
        },
        {
          "internalType": "address",
          "name": "",
          "type": "address"
        },
        {
          "internalType": "address",
          "name": "",
          "type": "address"
        }
      ],
      "stateMutability": "view",
      "type": "function"
    },
    {
      "inputs": [
        {
          "internalType": "uint256",
          "name": "_feeType",
          "type": "uint256"
        }
      ],
      "name": "getFeesReceiver",
      "outputs": [
        {
          "internalType": "address",
          "name": "",
          "type": "address"
        }
      ],
      "stateMutability": "view",
      "type": "function"
    },
    {
      "inputs": [
        {
          "internalType": "address",
          "name": "_vault",
          "type": "address"
        }
      ],
      "name": "getRolesPerVault",
      "outputs": [
        {
          "internalType": "address[]",
          "name": "",
          "type": "address[]"
        },
        {
          "internalType": "address[]",
          "name": "",
          "type": "address[]"
        }
      ],
      "stateMutability": "view",
      "type": "function"
    },
    {
      "inputs": [
        {
          "internalType": "address",
          "name": "_vault",
          "type": "address"
        }
      ],
      "name": "getShareState",
      "outputs": [
        {
          "internalType": "address",
          "name": "share",
          "type": "address"
        },
        {
          "internalType": "string",
          "name": "name",
          "type": "string"
        },
        {
          "internalType": "string",
          "name": "symbol",
          "type": "string"
        },
        {
          "internalType": "uint8",
          "name": "decimals",
          "type": "uint8"
        },
        {
          "internalType": "uint256",
          "name": "supply",
          "type": "uint256"
        },
        {
          "internalType": "bool",
          "name": "transferable",
          "type": "bool"
        }
      ],
      "stateMutability": "view",
      "type": "function"
    },
    {
      "inputs": [
        {
          "internalType": "address",
          "name": "_vault",
          "type": "address"
        },
        {
          "internalType": "address",
          "name": "_user",
          "type": "address"
        }
      ],
      "name": "getUserShareState",
      "outputs": [
        {
          "internalType": "address",
          "name": "share",
          "type": "address"
        },
        {
          "internalType": "uint256",
          "name": "balance",
          "type": "uint256"
        },
        {
          "internalType": "uint256",
          "name": "allowanceToVault",
          "type": "uint256"
        }
      ],
      "stateMutability": "view",
      "type": "function"
    },
    {
      "inputs": [
        {
          "internalType": "address",
          "name": "_vault",
          "type": "address"
        }
      ],
      "name": "getVaultOngoingFees",
      "outputs": [
        {
          "internalType": "uint256",
          "name": "ongoingManagementFees",
          "type": "uint256"
        },
        {
          "internalType": "uint256",
          "name": "ongoingPerformanceFees",
          "type": "uint256"
        }
      ],
      "stateMutability": "view",
      "type": "function"
    },
    {
      "inputs": [
        {
          "internalType": "address",
          "name": "_vault",
          "type": "address"
        }
      ],
      "name": "getVaultState",
      "outputs": [
        {
          "components": [
            {
              "internalType": "address",
              "name": "tokenAddress",
              "type": "address"
            },
            {
              "internalType": "address",
              "name": "priceFeedAddress",
              "type": "address"
            },
            {
              "internalType": "uint8",
              "name": "priceFeedPrecision",
              "type": "uint8"
            },
            {
              "internalType": "uint256",
              "name": "denominator",
              "type": "uint256"
            }
          ],
          "internalType": "struct VLib.Token[]",
          "name": "vTokens",
          "type": "tuple[]"
        },
        {
          "components": [
            {
              "internalType": "address",
              "name": "factory",
              "type": "address"
            },
            {
              "internalType": "uint256",
              "name": "createdAtBlockNumber",
              "type": "uint256"
            },
            {
              "internalType": "address",
              "name": "share",
              "type": "address"
            }
          ],
          "internalType": "struct VLib.ConstantProps",
          "name": "constantProps",
          "type": "tuple"
        },
        {
          "components": [
            {
              "internalType": "uint256",
              "name": "highWaterMark",
              "type": "uint256"
            },
            {
              "internalType": "uint256[]",
              "name": "prevRebalanceSignals",
              "type": "uint256[]"
            },
            {
              "internalType": "uint256",
              "name": "prevSwap",
              "type": "uint256"
            },
            {
              "internalType": "uint256",
              "name": "prevMngHarvest",
              "type": "uint256"
            }
          ],
          "internalType": "struct VLib.HistoryProps",
          "name": "historyProps",
          "type": "tuple"
        },
        {
          "components": [
            {
              "internalType": "bool",
              "name": "paused",
              "type": "bool"
            },
            {
              "internalType": "uint8",
              "name": "verified",
              "type": "uint8"
            },
            {
              "internalType": "string",
              "name": "name",
              "type": "string"
            },
            {
              "internalType": "string",
              "name": "description",
              "type": "string"
            }
          ],
          "internalType": "struct VLib.ConfigProps",
          "name": "configProps",
          "type": "tuple"
        },
        {
          "components": [
            {
              "internalType": "address",
              "name": "beneficiary",
              "type": "address"
            },
            {
              "internalType": "uint256",
              "name": "exitFees",
              "type": "uint256"
            },
            {
              "internalType": "uint256",
              "name": "managementFeesRate",
              "type": "uint256"
            },
            {
              "internalType": "uint256",
              "name": "managementFeesToStrategist",
              "type": "uint256"
            },
            {
              "internalType": "uint256",
              "name": "performanceFeesRate",
              "type": "uint256"
            },
            {
              "internalType": "uint256",
              "name": "performanceFeesToStrategist",
              "type": "uint256"
            }
          ],
          "internalType": "struct VLib.FeesProps",
          "name": "feesProps",
          "type": "tuple"
        },
        {
          "components": [
            {
              "internalType": "uint256",
              "name": "maxAUM",
              "type": "uint256"
            },
            {
              "internalType": "uint256",
              "name": "maxLossSwap",
              "type": "uint256"
            },
            {
              "internalType": "uint256",
              "name": "minAmountDeposit",
              "type": "uint256"
            },
            {
              "internalType": "uint256",
              "name": "maxAmountDeposit",
              "type": "uint256"
            },
            {
              "internalType": "uint256",
              "name": "minFrequencySwap",
              "type": "uint256"
            },
            {
              "internalType": "uint256",
              "name": "minSecurityTime",
              "type": "uint256"
            },
            {
              "internalType": "uint256",
              "name": "minHarvestThreshold",
              "type": "uint256"
            }
          ],
          "internalType": "struct VLib.SecurityProps",
          "name": "securityProps",
          "type": "tuple"
        },
        {
          "internalType": "uint256[]",
          "name": "balances",
          "type": "uint256[]"
        },
        {
          "internalType": "uint256[]",
          "name": "positions",
          "type": "uint256[]"
        },
        {
          "internalType": "uint256",
          "name": "vvl",
          "type": "uint256"
        },
        {
          "internalType": "uint256",
          "name": "sharePrice",
          "type": "uint256"
        }
      ],
      "stateMutability": "view",
      "type": "function"
    },
    {
      "inputs": [],
      "name": "getWhitelistedTokens",
      "outputs": [
        {
          "internalType": "address[]",
          "name": "",
          "type": "address[]"
        }
      ],
      "stateMutability": "view",
      "type": "function"
    },
    {
      "inputs": [],
      "name": "harvester",
      "outputs": [
        {
          "internalType": "address",
          "name": "",
          "type": "address"
        }
      ],
      "stateMutability": "view",
      "type": "function"
    },
    {
      "inputs": [
        {
          "internalType": "address",
          "name": "_token",
          "type": "address"
        }
      ],
      "name": "isTokenWhitelisted",
      "outputs": [
        {
          "internalType": "bool",
          "name": "",
          "type": "bool"
        }
      ],
      "stateMutability": "view",
      "type": "function"
    },
    {
      "inputs": [],
      "name": "owner",
      "outputs": [
        {
          "internalType": "address",
          "name": "",
          "type": "address"
        }
      ],
      "stateMutability": "view",
      "type": "function"
    },
    {
      "inputs": [
        {
          "internalType": "address[]",
          "name": "_tokens",
          "type": "address[]"
        }
      ],
      "name": "removeTokensFromWhitelist",
      "outputs": [],
      "stateMutability": "nonpayable",
      "type": "function"
    },
    {
      "inputs": [],
      "name": "renounceOwnership",
      "outputs": [],
      "stateMutability": "nonpayable",
      "type": "function"
    },
    {
      "inputs": [
        {
          "internalType": "address",
          "name": "_newAccessManager",
          "type": "address"
        }
      ],
      "name": "setAccessManager",
      "outputs": [],
      "stateMutability": "nonpayable",
      "type": "function"
    },
    {
      "inputs": [
        {
          "internalType": "address",
          "name": "_newFeesManager",
          "type": "address"
        }
      ],
      "name": "setFeesManager",
      "outputs": [],
      "stateMutability": "nonpayable",
      "type": "function"
    },
    {
      "inputs": [
        {
          "internalType": "address",
          "name": "_newHarvester",
          "type": "address"
        }
      ],
      "name": "setHarvester",
      "outputs": [],
      "stateMutability": "nonpayable",
      "type": "function"
    },
    {
      "inputs": [
        {
          "internalType": "address",
          "name": "_newSwapRouter",
          "type": "address"
        },
        {
          "internalType": "address",
          "name": "_newSwapProxy",
          "type": "address"
        }
      ],
      "name": "setSwapContracts",
      "outputs": [],
      "stateMutability": "nonpayable",
      "type": "function"
    },
    {
      "inputs": [],
      "name": "shareLogic",
      "outputs": [
        {
          "internalType": "address",
          "name": "",
          "type": "address"
        }
      ],
      "stateMutability": "view",
      "type": "function"
    },
    {
      "inputs": [],
      "name": "swapAdapter",
      "outputs": [
        {
          "internalType": "address",
          "name": "",
          "type": "address"
        }
      ],
      "stateMutability": "view",
      "type": "function"
    },
    {
      "inputs": [],
      "name": "swapProxy",
      "outputs": [
        {
          "internalType": "address",
          "name": "",
          "type": "address"
        }
      ],
      "stateMutability": "view",
      "type": "function"
    },
    {
      "inputs": [],
      "name": "swapRouter",
      "outputs": [
        {
          "internalType": "address",
          "name": "",
          "type": "address"
        }
      ],
      "stateMutability": "view",
      "type": "function"
    },
    {
      "inputs": [
        {
          "internalType": "address",
          "name": "",
          "type": "address"
        }
      ],
      "name": "tokensPriceFeed",
      "outputs": [
        {
          "internalType": "address",
          "name": "",
          "type": "address"
        }
      ],
      "stateMutability": "view",
      "type": "function"
    },
    {
      "inputs": [
        {
          "internalType": "address",
          "name": "newOwner",
          "type": "address"
        }
      ],
      "name": "transferOwnership",
      "outputs": [],
      "stateMutability": "nonpayable",
      "type": "function"
    },
    {
      "inputs": [
        {
          "internalType": "uint256",
          "name": "",
          "type": "uint256"
        }
      ],
      "name": "vaults",
      "outputs": [
        {
          "internalType": "address",
          "name": "",
          "type": "address"
        }
      ],
      "stateMutability": "view",
      "type": "function"
    }
  ],
  "bytecode": "0x60a06040523480156200001157600080fd5b50604051620041f3380380620041f3833981016040819052620000349162000140565b6200003f33620000d3565b60609790971b6001600160601b031916608052600580546001600160a01b03199081166001600160a01b0398891617909155600480548216968816969096179095556007805486169487169490941790935560088054851692861692909217909155600980548416918516919091179055600a80548316918416919091179055600b805490911691909216179055620001e8565b600080546001600160a01b038381166001600160a01b0319831681178455604051919092169283917f8be0079c531659141344cd1fd0a4f28419497f9722a3daafe3b4186f6b6457e09190a35050565b80516001600160a01b03811681146200013b57600080fd5b919050565b600080600080600080600080610100898b0312156200015e57600080fd5b620001698962000123565b97506200017960208a0162000123565b96506200018960408a0162000123565b95506200019960608a0162000123565b9450620001a960808a0162000123565b9350620001b960a08a0162000123565b9250620001c960c08a0162000123565b9150620001d960e08a0162000123565b90509295985092959890939650565b60805160601c613fec62000207600039600061043d0152613fec6000f3fe60806040523480156200001157600080fd5b5060043610620001c95760003560e01c80638eafcda51162000103578063c83d63aa116200009e578063c83d63aa146200048a578063c958080414620004a1578063d10cf56914620004b8578063e26f790014620004e4578063e6eb73b114620004ee578063ecd793131462000519578063f2fde38b1462000530578063fdcb6068146200054757600080fd5b80638eafcda5146200037557806397331bf914620003b2578063b30d8c6014620003cb578063b36bb0e314620003f8578063b5af090f146200040f578063bfb828091462000437578063c207d6aa146200045f578063c31c9c07146200047657600080fd5b80636483461e11620001745780636483461e14620002985780636ec4be9014620002bf578063715018a614620002d357806377bb1eb914620002dd5780637a07de7914620002f157806389c05ff914620003425780638c64ea4a14620003545780638da5cb5b146200036b57600080fd5b806305a9e07314620001ce57806315de1daa14620001fa5780631c89382a146200021357806320ee1e44146200022a5780633a7c17ec14620002595780634bdaeac1146200027057806359659e901462000284575b600080fd5b600454620001e2906001600160a01b031681565b604051620001f191906200267f565b60405180910390f35b620002116200020b366004620026a9565b6200055b565b005b6200021162000224366004620026a9565b620005f0565b620002416200023b366004620026a9565b62000671565b604051620001f19a999897969594939291906200282b565b620001e26200026a366004620029cc565b62000cf9565b600754620001e2906001600160a01b031681565b600b54620001e2906001600160a01b031681565b620002af620002a9366004620026a9565b62000dcd565b604051620001f192919062002a21565b600954620001e2906001600160a01b031681565b620002116200120c565b600a54620001e2906001600160a01b031681565b600654600454600554600754600954600854604080519687526001600160a01b039586166020880152938516938601939093529083166060850152821660808401521660a082015260c001620001f1565b600654604051908152602001620001f1565b620001e262000365366004620029cc565b6200124e565b620001e262001279565b6200038c6200038636600462002a4a565b62001288565b604080516001600160a01b039094168452602084019290925290820152606001620001f1565b620003bc62001421565b604051620001f1919062002a88565b620003e2620003dc366004620026a9565b62001485565b60408051928352602083019190915201620001f1565b620002116200040936600462002aeb565b6200157b565b6200042662000420366004620026a9565b62001672565b6040519015158152602001620001f1565b620001e27f000000000000000000000000000000000000000000000000000000000000000081565b620002116200047036600462002a4a565b62001681565b600854620001e2906001600160a01b031681565b620002116200049b36600462002b30565b62001723565b62000211620004b2366004620026a9565b6200198b565b620001e2620004c9366004620026a9565b6003602052600090815260409020546001600160a01b031681565b620003bc62001a0c565b62000505620004ff366004620026a9565b62001aca565b604051620001f19695949392919062002ba2565b620002116200052a36600462002c00565b62001db8565b6200021162000541366004620026a9565b62002384565b600554620001e2906001600160a01b031681565b336200056662001279565b6001600160a01b031614620005985760405162461bcd60e51b81526004016200058f9062002caf565b60405180910390fd5b600780546001600160a01b0319166001600160a01b0383161790556040517f3e1de8417612aeb2f34c3ff349211d9a51193831d02625e053759a249b59411590620005e59083906200267f565b60405180910390a150565b33620005fb62001279565b6001600160a01b031614620006245760405162461bcd60e51b81526004016200058f9062002caf565b600480546001600160a01b0319166001600160a01b0383161790556040517f74baf00120bf62fc8df2e6ddc1f2f9ae62320d1d7a3a62a223fd06e452366c9a90620005e59083906200267f565b604080516060808201835260008083526020808401829052838501829052845160808101865282815290810183905293840181905283820152916040805160808101825260008082526020820152606091810182905281810191909152620007116040518060c0016040528060006001600160a01b0316815260200160008152602001600081526020016000815260200160008152602001600081525090565b620007526040518060e00160405280600081526020016000815260200160008152602001600081526020016000815260200160008152602001600081525090565b60608060008060008b6001600160a01b031663d92fc67b6040518163ffffffff1660e01b815260040160206040518083038186803b1580156200079457600080fd5b505afa158015620007a9573d6000803e3d6000fd5b505050506040513d601f19601f82011682018060405250810190620007cf919062002ce4565b9050806001600160401b03811115620007ec57620007ec62002cfe565b6040519080825280602002602001820160405280156200084057816020015b6040805160808101825260008082526020808301829052928201819052606082015282526000199092019101816200080b5790505b509a50806001600160401b038111156200085e576200085e62002cfe565b60405190808252806020026020018201604052801562000888578160200160208202803683370190505b50945060005b8181101562000a0a576040516327b2595f60e11b8152600481018290526001600160a01b038e1690634f64b2be9060240160806040518083038186803b158015620008d857600080fd5b505afa158015620008ed573d6000803e3d6000fd5b505050506040513d601f19601f8201168201806040525081019062000913919062002d84565b8c828151811062000928576200092862002e0a565b60200260200101819052508b818151811062000948576200094862002e0a565b6020026020010151600001516001600160a01b03166370a082318e6040518263ffffffff1660e01b81526004016200098191906200267f565b60206040518083038186803b1580156200099a57600080fd5b505afa158015620009af573d6000803e3d6000fd5b505050506040513d601f19601f82011682018060405250810190620009d5919062002ce4565b868281518110620009ea57620009ea62002e0a565b60209081029190910101528062000a018162002e36565b9150506200088e565b508b6001600160a01b031663811fe3ad6040518163ffffffff1660e01b815260040160606040518083038186803b15801562000a4557600080fd5b505afa15801562000a5a573d6000803e3d6000fd5b505050506040513d601f19601f8201168201806040525081019062000a80919062002e54565b99508b6001600160a01b0316637dedcf926040518163ffffffff1660e01b815260040160006040518083038186803b15801562000abc57600080fd5b505afa15801562000ad1573d6000803e3d6000fd5b505050506040513d6000823e601f3d908101601f1916820160405262000afb919081019062002f4c565b98508b6001600160a01b0316634237d77d6040518163ffffffff1660e01b815260040160006040518083038186803b15801562000b3757600080fd5b505afa15801562000b4c573d6000803e3d6000fd5b505050506040513d6000823e601f3d908101601f1916820160405262000b76919081019062003066565b97508b6001600160a01b031663830b49806040518163ffffffff1660e01b815260040160c06040518083038186803b15801562000bb257600080fd5b505afa15801562000bc7573d6000803e3d6000fd5b505050506040513d601f19601f8201168201806040525081019062000bed919062003127565b96508b6001600160a01b0316636522e3f36040518163ffffffff1660e01b815260040160e06040518083038186803b15801562000c2957600080fd5b505afa15801562000c3e573d6000803e3d6000fd5b505050506040513d601f19601f8201168201806040525081019062000c649190620031af565b95508b6001600160a01b031663aede67ea6040518163ffffffff1660e01b815260040160006040518083038186803b15801562000ca057600080fd5b505afa15801562000cb5573d6000803e3d6000fd5b505050506040513d6000823e601f3d908101601f1916820160405262000cdf919081019062003236565b809450819550829650505050509193959799509193959799565b60008162000d8557600480546040805163e638ea0b60e01b815290516001600160a01b039092169263e638ea0b928282019260209290829003018186803b15801562000d4457600080fd5b505afa15801562000d59573d6000803e3d6000fd5b505050506040513d601f19601f8201168201806040525081019062000d7f919062003289565b92915050565b600480546040805163fe21abef60e01b815290516001600160a01b039092169263fe21abef928282019260209290829003018186803b15801562000d4457600080fd5b919050565b6060806000836001600160a01b031663a378a3246040518163ffffffff1660e01b815260040160206040518083038186803b15801562000e0c57600080fd5b505afa15801562000e21573d6000803e3d6000fd5b505050506040513d601f19601f8201168201806040525081019062000e47919062002ce4565b90506000846001600160a01b03166363a560ec6040518163ffffffff1660e01b815260040160206040518083038186803b15801562000e8557600080fd5b505afa15801562000e9a573d6000803e3d6000fd5b505050506040513d601f19601f8201168201806040525081019062000ec0919062002ce4565b60405163ca15c87360e01b8152600481018490529091506000906001600160a01b0387169063ca15c8739060240160206040518083038186803b15801562000f0757600080fd5b505afa15801562000f1c573d6000803e3d6000fd5b505050506040513d601f19601f8201168201806040525081019062000f42919062002ce4565b60405163ca15c87360e01b8152600481018490529091506000906001600160a01b0388169063ca15c8739060240160206040518083038186803b15801562000f8957600080fd5b505afa15801562000f9e573d6000803e3d6000fd5b505050506040513d601f19601f8201168201806040525081019062000fc4919062002ce4565b90506000826001600160401b0381111562000fe35762000fe362002cfe565b6040519080825280602002602001820160405280156200100d578160200160208202803683370190505b5090506000826001600160401b038111156200102d576200102d62002cfe565b60405190808252806020026020018201604052801562001057578160200160208202803683370190505b50905060005b848110156200112b57604051632404341f60e21b815260048101889052602481018290526001600160a01b038b1690639010d07c9060440160206040518083038186803b158015620010ae57600080fd5b505afa158015620010c3573d6000803e3d6000fd5b505050506040513d601f19601f82011682018060405250810190620010e9919062003289565b838281518110620010fe57620010fe62002e0a565b6001600160a01b039092166020928302919091019091015280620011228162002e36565b9150506200105d565b5060005b83811015620011fd57604051632404341f60e21b815260048101879052602481018290526001600160a01b038b1690639010d07c9060440160206040518083038186803b1580156200118057600080fd5b505afa15801562001195573d6000803e3d6000fd5b505050506040513d601f19601f82011682018060405250810190620011bb919062003289565b828281518110620011d057620011d062002e0a565b6001600160a01b039092166020928302919091019091015280620011f48162002e36565b9150506200112f565b50909890975095505050505050565b336200121762001279565b6001600160a01b031614620012405760405162461bcd60e51b81526004016200058f9062002caf565b6200124c60006200242d565b565b600681815481106200125f57600080fd5b6000918252602090912001546001600160a01b0316905081565b6000546001600160a01b031690565b600080600080856001600160a01b031663811fe3ad6040518163ffffffff1660e01b815260040160606040518083038186803b158015620012c857600080fd5b505afa158015620012dd573d6000803e3d6000fd5b505050506040513d601f19601f8201168201806040525081019062001303919062002e54565b905080604001519350836001600160a01b03166370a08231866040518263ffffffff1660e01b81526004016200133a91906200267f565b60206040518083038186803b1580156200135357600080fd5b505afa15801562001368573d6000803e3d6000fd5b505050506040513d601f19601f820116820180604052508101906200138e919062002ce4565b604051636eb1769f60e11b81526001600160a01b03878116600483015288811660248301529194509085169063dd62ed3e9060440160206040518083038186803b158015620013dc57600080fd5b505afa158015620013f1573d6000803e3d6000fd5b505050506040513d601f19601f8201168201806040525081019062001417919062002ce4565b9150509250925092565b606060068054806020026020016040519081016040528092919081815260200182805480156200147b57602002820191906000526020600020905b81546001600160a01b031681526001909101906020018083116200145c575b5050505050905090565b600080826001600160a01b031663bad525976040518163ffffffff1660e01b815260040160206040518083038186803b158015620014c257600080fd5b505afa158015620014d7573d6000803e3d6000fd5b505050506040513d601f19601f82011682018060405250810190620014fd919062002ce4565b9150826001600160a01b03166323224ac86040518163ffffffff1660e01b815260040160206040518083038186803b1580156200153957600080fd5b505afa1580156200154e573d6000803e3d6000fd5b505050506040513d601f19601f8201168201806040525081019062001574919062002ce4565b9050915091565b336200158662001279565b6001600160a01b031614620015af5760405162461bcd60e51b81526004016200058f9062002caf565b60005b818110156200166d57620015f4838383818110620015d457620015d462002e0a565b9050602002016020810190620015eb9190620026a9565b6001906200247d565b5060006003600085858581811062001610576200161062002e0a565b9050602002016020810190620016279190620026a9565b6001600160a01b039081168252602082019290925260400160002080546001600160a01b0319169290911691909117905580620016648162002e36565b915050620015b2565b505050565b600062000d7f6001836200249b565b336200168c62001279565b6001600160a01b031614620016b55760405162461bcd60e51b81526004016200058f9062002caf565b600980546001600160a01b038381166001600160a01b03199283168117909355600880549186169190921681179091556040805191825260208201929092527fdaf35506498801b289a9826b2a5dc77d57b2c9e73510ca3759ae6f6c648bb65f910160405180910390a15050565b336200172e62001279565b6001600160a01b031614620017575760405162461bcd60e51b81526004016200058f9062002caf565b828114620017935760405162461bcd60e51b815260206004820152600860248201526709a92a69a82a886960c31b60448201526064016200058f565b60005b8381101562001945576000838383818110620017b657620017b662002e0a565b9050602002016020810190620017cd9190620026a9565b6001600160a01b031663313ce5676040518163ffffffff1660e01b815260040160206040518083038186803b1580156200180657600080fd5b505afa1580156200181b573d6000803e3d6000fd5b505050506040513d601f19601f82011682018060405250810190620018419190620032a9565b905060ff81166008146200186857604051632bdd753960e01b815260040160405180910390fd5b620018a186868481811062001881576200188162002e0a565b9050602002016020810190620018989190620026a9565b600190620024be565b50838383818110620018b757620018b762002e0a565b9050602002016020810190620018ce9190620026a9565b60036000888886818110620018e757620018e762002e0a565b9050602002016020810190620018fe9190620026a9565b6001600160a01b039081168252602082019290925260400160002080546001600160a01b0319169290911691909117905550806200193c8162002e36565b91505062001796565b507fd85c2d78547a01cdc2603fef7656030fb37b2d480fd09cd9f6217482fc176658848484846040516200197d949392919062003309565b60405180910390a150505050565b336200199662001279565b6001600160a01b031614620019bf5760405162461bcd60e51b81526004016200058f9062002caf565b600580546001600160a01b0319166001600160a01b0383161790556040517fcd582c342d6a1928e4e023c1fac88be786cdb2001d965ff0f41bb0ba098d7ef590620005e59083906200267f565b6060600062001a1c6001620024d5565b90506000816001600160401b0381111562001a3b5762001a3b62002cfe565b60405190808252806020026020018201604052801562001a65578160200160208202803683370190505b50905060005b8281101562001ac35762001a81600182620024e0565b82828151811062001a965762001a9662002e0a565b6001600160a01b03909216602092830291909101909101528062001aba8162002e36565b91505062001a6b565b5092915050565b6000606080600080600080876001600160a01b031663811fe3ad6040518163ffffffff1660e01b815260040160606040518083038186803b15801562001b0f57600080fd5b505afa15801562001b24573d6000803e3d6000fd5b505050506040513d601f19601f8201168201806040525081019062001b4a919062002e54565b905080604001519650866001600160a01b03166306fdde036040518163ffffffff1660e01b815260040160006040518083038186803b15801562001b8d57600080fd5b505afa15801562001ba2573d6000803e3d6000fd5b505050506040513d6000823e601f3d908101601f1916820160405262001bcc919081019062003334565b9550866001600160a01b03166395d89b416040518163ffffffff1660e01b815260040160006040518083038186803b15801562001c0857600080fd5b505afa15801562001c1d573d6000803e3d6000fd5b505050506040513d6000823e601f3d908101601f1916820160405262001c47919081019062003334565b9450866001600160a01b031663313ce5676040518163ffffffff1660e01b815260040160206040518083038186803b15801562001c8357600080fd5b505afa15801562001c98573d6000803e3d6000fd5b505050506040513d601f19601f8201168201806040525081019062001cbe9190620032a9565b9350866001600160a01b03166318160ddd6040518163ffffffff1660e01b815260040160206040518083038186803b15801562001cfa57600080fd5b505afa15801562001d0f573d6000803e3d6000fd5b505050506040513d601f19601f8201168201806040525081019062001d35919062002ce4565b9250866001600160a01b03166392ff0d316040518163ffffffff1660e01b815260040160206040518083038186803b15801562001d7157600080fd5b505afa15801562001d86573d6000803e3d6000fd5b505050506040513d601f19601f8201168201806040525081019062001dac91906200336c565b91505091939550919395565b600284101562001dfc5760405162461bcd60e51b815260206004820152600e60248201526d494e56414c49445f504152414d5360901b60448201526064016200058f565b600554604080516334be293560e11b815290516000926001600160a01b03169163697c526a916004808301926020929190829003018186803b15801562001e4257600080fd5b505afa15801562001e57573d6000803e3d6000fd5b505050506040513d601f19601f8201168201806040525081019062001e7d919062002ce4565b9050600560009054906101000a90046001600160a01b03166001600160a01b03166374b085bd6040518163ffffffff1660e01b815260040160206040518083038186803b15801562001ece57600080fd5b505afa15801562001ee3573d6000803e3d6000fd5b505050506040513d601f19601f8201168201806040525081019062001f0991906200336c565b15801562001f9c5750600554604051632474521560e21b81526001600160a01b03909116906391d148549062001f4690849033906004016200338a565b60206040518083038186803b15801562001f5f57600080fd5b505afa15801562001f74573d6000803e3d6000fd5b505050506040513d601f19601f8201168201806040525081019062001f9a91906200336c565b155b1562001fba576040516282b42960e81b815260040160405180910390fd5b60005b85811015620020585762001ff687878381811062001fdf5762001fdf62002e0a565b9050602002016020810190620004209190620026a9565b620020435786868281811062002010576200201062002e0a565b9050602002016020810190620020279190620026a9565b60405163e8a2613b60e01b81526004016200058f91906200267f565b806200204f8162002e36565b91505062001fbd565b50600b546040516000916001600160a01b031690620020779062002671565b6001600160a01b039091168152604060208201819052600090820152606001604051809103906000f080158015620020b3573d6000803e3d6000fd5b506040516319eb775f60e31b815290915081906001600160a01b0382169063cf5bbaf890620020ef908b908b908b908b908b906004016200345d565b600060405180830381600087803b1580156200210a57600080fd5b505af11580156200211f573d6000803e3d6000fd5b505050506000816001600160a01b031663a217fddf6040518163ffffffff1660e01b815260040160206040518083038186803b1580156200215f57600080fd5b505afa15801562002174573d6000803e3d6000fd5b505050506040513d601f19601f820116820180604052508101906200219a919062002ce4565b9050816001600160a01b0316632f2ff15d82620021b662001279565b6040518363ffffffff1660e01b8152600401620021d59291906200338a565b600060405180830381600087803b158015620021f057600080fd5b505af115801562002205573d6000803e3d6000fd5b505060405163d547741f60e01b81526001600160a01b038516925063d547741f91506200223990849030906004016200338a565b600060405180830381600087803b1580156200225457600080fd5b505af115801562002269573d6000803e3d6000fd5b50506006805460018101825560009182527ff652222313e28459528d920b65115c16c04f3efc82aaedc97be59f3f377c0d3f0180546001600160a01b0319166001600160a01b03888116919091179091556040805163811fe3ad60e01b81529051929450908616925063811fe3ad916004808301926060929190829003018186803b158015620022f857600080fd5b505afa1580156200230d573d6000803e3d6000fd5b505050506040513d601f19601f8201168201806040525081019062002333919062002e54565b90507f21ea9091cde4c956f06f3b5eede7daf6bbb05898234dc2b2578899af98a9c7868382604001518c8c604051620023709493929190620035a2565b60405180910390a150505050505050505050565b336200238f62001279565b6001600160a01b031614620023b85760405162461bcd60e51b81526004016200058f9062002caf565b6001600160a01b0381166200241f5760405162461bcd60e51b815260206004820152602660248201527f4f776e61626c653a206e6577206f776e657220697320746865207a65726f206160448201526564647265737360d01b60648201526084016200058f565b6200242a816200242d565b50565b600080546001600160a01b038381166001600160a01b0319831681178455604051919092169283917f8be0079c531659141344cd1fd0a4f28419497f9722a3daafe3b4186f6b6457e09190a35050565b600062002494836001600160a01b038416620024ee565b9392505050565b6001600160a01b0381166000908152600183016020526040812054151562002494565b600062002494836001600160a01b038416620025f2565b600062000d7f825490565b600062002494838362002644565b60008181526001830160205260408120548015620025e757600062002515600183620035d1565b85549091506000906200252b90600190620035d1565b9050818114620025975760008660000182815481106200254f576200254f62002e0a565b906000526020600020015490508087600001848154811062002575576200257562002e0a565b6000918252602080832090910192909255918252600188019052604090208390555b8554869080620025ab57620025ab620035eb565b60019003818190600052602060002001600090559055856001016000868152602001908152602001600020600090556001935050505062000d7f565b600091505062000d7f565b60008181526001830160205260408120546200263b5750815460018181018455600084815260208082209093018490558454848252828601909352604090209190915562000d7f565b50600062000d7f565b60008260000182815481106200265e576200265e62002e0a565b9060005260206000200154905092915050565b6109b5806200360283390190565b6001600160a01b0391909116815260200190565b6001600160a01b03811681146200242a57600080fd5b600060208284031215620026bc57600080fd5b8135620024948162002693565b6000608083018251845260208084015160808287015282815180855260a0880191508383019450600092505b80831015620027175784518252938301936001929092019190830190620026f5565b5060408601516040880152606086015160608801528094505050505092915050565b60005b83811015620027565781810151838201526020016200273c565b8381111562002766576000848401525b50505050565b600081518084526200278681602086016020860162002739565b601f01601f19169290920160200192915050565b80511515825260ff60208201511660208301526000604082015160806040850152620027ca60808501826200276c565b905060608301518482036060860152620027e582826200276c565b95945050505050565b600081518084526020808501945080840160005b83811015620028205781518752958201959082019060010162002802565b509495945050505050565b6102e08082528b51908201819052600090610300830190602090818f01845b828110156200289757815180516001600160a01b03908116875285820151168587015260408082015160ff169087015260609081015190860152608090940193908301906001016200284a565b505050620028c78185018e80516001600160a01b0390811683526020808301519084015260409182015116910152565b508281036080840152620028dc818c620026c9565b905082810360a0840152620028f2818b6200279a565b89516001600160a01b031660c085015260208a015160e085015260408a015161010085015260608a015161012085015260808a015161014085015260a08a01516101608501529050875161018084015260208801516101a084015260408801516101c084015260608801516101e0840152608088015161020084015260a088015161022084015260c0880151610240840152828103610260840152620029998188620027ee565b9050828103610280840152620029b08187620027ee565b6102a084019590955250506102c0015298975050505050505050565b600060208284031215620029df57600080fd5b5035919050565b600081518084526020808501945080840160005b83811015620028205781516001600160a01b031687529582019590820190600101620029fa565b60408152600062002a366040830185620029e6565b8281036020840152620027e58185620029e6565b6000806040838503121562002a5e57600080fd5b823562002a6b8162002693565b9150602083013562002a7d8162002693565b809150509250929050565b602081526000620024946020830184620029e6565b60008083601f84011262002ab057600080fd5b5081356001600160401b0381111562002ac857600080fd5b6020830191508360208260051b850101111562002ae457600080fd5b9250929050565b6000806020838503121562002aff57600080fd5b82356001600160401b0381111562002b1657600080fd5b62002b248582860162002a9d565b90969095509350505050565b6000806000806040858703121562002b4757600080fd5b84356001600160401b038082111562002b5f57600080fd5b62002b6d8883890162002a9d565b9096509450602087013591508082111562002b8757600080fd5b5062002b968782880162002a9d565b95989497509550505050565b6001600160a01b038716815260c06020820181905260009062002bc8908301886200276c565b828103604084015262002bdc81886200276c565b60ff96909616606084015250506080810192909252151560a0909101529392505050565b60008060008060008587036101e081121562002c1b57600080fd5b86356001600160401b038082111562002c3357600080fd5b62002c418a838b0162002a9d565b9098509650602089013591508082111562002c5b57600080fd5b50870160a0818a03121562002c6f57600080fd5b935060c0603f198201121562002c8457600080fd5b60408701925060e060ff198201121562002c9d57600080fd5b50610100860190509295509295909350565b6020808252818101527f4f776e61626c653a2063616c6c6572206973206e6f7420746865206f776e6572604082015260600190565b60006020828403121562002cf757600080fd5b5051919050565b634e487b7160e01b600052604160045260246000fd5b604051608081016001600160401b038111828210171562002d395762002d3962002cfe565b60405290565b604051601f8201601f191681016001600160401b038111828210171562002d6a5762002d6a62002cfe565b604052919050565b805160ff8116811462000dc857600080fd5b60006080828403121562002d9757600080fd5b604051608081018181106001600160401b038211171562002dbc5762002dbc62002cfe565b604052825162002dcc8162002693565b8152602083015162002dde8162002693565b602082015262002df16040840162002d72565b6040820152606083015160608201528091505092915050565b634e487b7160e01b600052603260045260246000fd5b634e487b7160e01b600052601160045260246000fd5b600060001982141562002e4d5762002e4d62002e20565b5060010190565b60006060828403121562002e6757600080fd5b604051606081018181106001600160401b038211171562002e8c5762002e8c62002cfe565b604052825162002e9c8162002693565b815260208381015190820152604083015162002eb88162002693565b60408201529392505050565b600082601f83011262002ed657600080fd5b815160206001600160401b0382111562002ef45762002ef462002cfe565b8160051b62002f0582820162002d3f565b928352848101820192828101908785111562002f2057600080fd5b83870192505b8483101562002f415782518252918301919083019062002f26565b979650505050505050565b60006020828403121562002f5f57600080fd5b81516001600160401b038082111562002f7757600080fd5b908301906080828603121562002f8c57600080fd5b62002f9662002d14565b8251815260208301518281111562002fad57600080fd5b62002fbb8782860162002ec4565b602083015250604083015160408201526060830151606082015280935050505092915050565b8051801515811462000dc857600080fd5b600082601f8301126200300457600080fd5b81516001600160401b0381111562003020576200302062002cfe565b62003035601f8201601f191660200162002d3f565b8181528460208386010111156200304b57600080fd5b6200305e82602083016020870162002739565b949350505050565b6000602082840312156200307957600080fd5b81516001600160401b03808211156200309157600080fd5b9083019060808286031215620030a657600080fd5b620030b062002d14565b620030bb8362002fe1565b8152620030cb6020840162002d72565b6020820152604083015182811115620030e357600080fd5b620030f18782860162002ff2565b6040830152506060830151828111156200310a57600080fd5b620031188782860162002ff2565b60608301525095945050505050565b600060c082840312156200313a57600080fd5b60405160c081018181106001600160401b03821117156200315f576200315f62002cfe565b60405282516200316f8162002693565b808252506020830151602082015260408301516040820152606083015160608201526080830151608082015260a083015160a08201528091505092915050565b600060e08284031215620031c257600080fd5b60405160e081018181106001600160401b0382111715620031e757620031e762002cfe565b8060405250825181526020830151602082015260408301516040820152606083015160608201526080830151608082015260a083015160a082015260c083015160c08201528091505092915050565b6000806000606084860312156200324c57600080fd5b83516001600160401b038111156200326357600080fd5b620032718682870162002ec4565b93505060208401519150604084015190509250925092565b6000602082840312156200329c57600080fd5b8151620024948162002693565b600060208284031215620032bc57600080fd5b620024948262002d72565b8183526000602080850194508260005b8581101562002820578135620032ed8162002693565b6001600160a01b031687529582019590820190600101620032d7565b6040815260006200331f604083018688620032c7565b828103602084015262002f41818587620032c7565b6000602082840312156200334757600080fd5b81516001600160401b038111156200335e57600080fd5b6200305e8482850162002ff2565b6000602082840312156200337f57600080fd5b620024948262002fe1565b9182526001600160a01b0316602082015260400190565b6000808335601e19843603018112620033b957600080fd5b83016020810192503590506001600160401b03811115620033d957600080fd5b80360383131562002ae457600080fd5b81835281816020850137506000828201602090810191909152601f909101601f19169091010190565b80356200341f8162002693565b6001600160a01b031682526020818101359083015260408082013590830152606080820135908301526080808201359083015260a090810135910152565b60006101e080835262003474818401888a620032c7565b905082810360208401526200348a8687620033a1565b60a083526200349e60a084018284620033e9565b915050620034b06020880188620033a1565b8383036020850152620034c5838284620033e9565b92505050620034d86040880188620033a1565b8383036040850152620034ed838284620033e9565b92505050620035006060880188620033a1565b838303606085015262003515838284620033e9565b925050506080870135620035298162002693565b6001600160a01b03166080929092019190915290506200354d604083018562003412565b8235610100830152602083013561012083015260408301356101408301526060830135610160830152608083013561018083015260a08301356101a083015260c08301356101c08301525b9695505050505050565b6001600160a01b03858116825284166020820152606060408201819052600090620035989083018486620032c7565b600082821015620035e657620035e662002e20565b500390565b634e487b7160e01b600052603160045260246000fdfe60806040526040516109b53803806109b5833981016040819052610022916104a9565b61004d60017fa3f0ad74e5423aebfd80d3ef4346578335a9a72aeaee59ff6cb3582b35133d51610569565b60008051602061096e833981519152146100695761006961058e565b6100758282600061007c565b505061060e565b61008583610156565b6040516001600160a01b038416907f1cf3b03a6cf19fa2baba4df148e9dcabedea7f8a5c07840e207e5c089be95d3e90600090a26000825111806100c65750805b156101515761014f836001600160a01b0316635c60da1b6040518163ffffffff1660e01b815260040160206040518083038186803b15801561010757600080fd5b505afa15801561011b573d6000803e3d6000fd5b505050506040513d601f19601f8201168201806040525081019061013f91906105a4565b836102f660201b6100291760201c565b505b505050565b6101698161032260201b6100551760201c565b6101c85760405162461bcd60e51b815260206004820152602560248201527f455243313936373a206e657720626561636f6e206973206e6f74206120636f6e6044820152641d1c9858dd60da1b60648201526084015b60405180910390fd5b61024b816001600160a01b0316635c60da1b6040518163ffffffff1660e01b815260040160206040518083038186803b15801561020457600080fd5b505afa158015610218573d6000803e3d6000fd5b505050506040513d601f19601f8201168201806040525081019061023c91906105a4565b61032260201b6100551760201c565b6102b05760405162461bcd60e51b815260206004820152603060248201527f455243313936373a20626561636f6e20696d706c656d656e746174696f6e206960448201526f1cc81b9bdd08184818dbdb9d1c9858dd60821b60648201526084016101bf565b806102d560008051602061096e83398151915260001b61033160201b6100641760201c565b80546001600160a01b0319166001600160a01b039290921691909117905550565b606061031b838360405180606001604052806027815260200161098e60279139610334565b9392505050565b6001600160a01b03163b151590565b90565b60606001600160a01b0384163b61039c5760405162461bcd60e51b815260206004820152602660248201527f416464726573733a2064656c65676174652063616c6c20746f206e6f6e2d636f6044820152651b9d1c9858dd60d21b60648201526084016101bf565b600080856001600160a01b0316856040516103b791906105bf565b600060405180830381855af49150503d80600081146103f2576040519150601f19603f3d011682016040523d82523d6000602084013e6103f7565b606091505b509092509050610408828286610412565b9695505050505050565b6060831561042157508161031b565b8251156104315782518084602001fd5b8160405162461bcd60e51b81526004016101bf91906105db565b80516001600160a01b038116811461046257600080fd5b919050565b634e487b7160e01b600052604160045260246000fd5b60005b83811015610498578181015183820152602001610480565b8381111561014f5750506000910152565b600080604083850312156104bc57600080fd5b6104c58361044b565b60208401519092506001600160401b03808211156104e257600080fd5b818501915085601f8301126104f657600080fd5b81518181111561050857610508610467565b604051601f8201601f19908116603f0116810190838211818310171561053057610530610467565b8160405282815288602084870101111561054957600080fd5b61055a83602083016020880161047d565b80955050505050509250929050565b60008282101561058957634e487b7160e01b600052601160045260246000fd5b500390565b634e487b7160e01b600052600160045260246000fd5b6000602082840312156105b657600080fd5b61031b8261044b565b600082516105d181846020870161047d565b9190910192915050565b60208152600082518060208401526105fa81604085016020870161047d565b601f01601f19169190910160400192915050565b6103518061061d6000396000f3fe60806040523661001357610011610017565b005b6100115b610027610022610067565b61010f565b565b606061004e83836040518060600160405280602781526020016102f560279139610133565b9392505050565b6001600160a01b03163b151590565b90565b600061009a7fa3f0ad74e5423aebfd80d3ef4346578335a9a72aeaee59ff6cb3582b35133d50546001600160a01b031690565b6001600160a01b0316635c60da1b6040518163ffffffff1660e01b815260040160206040518083038186803b1580156100d257600080fd5b505afa1580156100e6573d6000803e3d6000fd5b505050506040513d601f19601f8201168201806040525081019061010a919061024c565b905090565b3660008037600080366000845af43d6000803e80801561012e573d6000f35b3d6000fd5b606061013e84610055565b61019e5760405162461bcd60e51b815260206004820152602660248201527f416464726573733a2064656c65676174652063616c6c20746f206e6f6e2d636f6044820152651b9d1c9858dd60d21b60648201526084015b60405180910390fd5b600080856001600160a01b0316856040516101b991906102a5565b600060405180830381855af49150503d80600081146101f4576040519150601f19603f3d011682016040523d82523d6000602084013e6101f9565b606091505b5091509150610209828286610213565b9695505050505050565b6060831561022257508161004e565b8251156102325782518084602001fd5b8160405162461bcd60e51b815260040161019591906102c1565b60006020828403121561025e57600080fd5b81516001600160a01b038116811461004e57600080fd5b60005b83811015610290578181015183820152602001610278565b8381111561029f576000848401525b50505050565b600082516102b7818460208701610275565b9190910192915050565b60208152600082518060208401526102e0816040850160208701610275565b601f01601f1916919091016040019291505056fe416464726573733a206c6f772d6c6576656c2064656c65676174652063616c6c206661696c6564a2646970667358221220f6dd1a8ab7fb664fce65bb34af07fde00b1b3e19922d69ca872e25d27982028f64736f6c63430008080033a3f0ad74e5423aebfd80d3ef4346578335a9a72aeaee59ff6cb3582b35133d50416464726573733a206c6f772d6c6576656c2064656c65676174652063616c6c206661696c6564a2646970667358221220bd1f4e5b8fc4447cf988470c81050fdd5910444ccacf339b230198eaf4830eeb64736f6c63430008080033",
  "linkReferences": {},
  "deployedLinkReferences": {}
}